:020000040000FA
:100000000DEF01F00E01CDAB03EF00F09950136E30
:1000100012009A6E9EA20AEF00F01200000E816E8E
:10002000818080507E4A7F2A1200806E040E816E8D
:10003000550E826EAA0E826E818281B21DEF00F093
:100040007E4A7F2A12007F6A280E7E6E060E186E88
:1000500013A030EF00F0FF0E15EC00F031EF00F0D0
:100060007E2A1332182E28EF00F01200000E09EC41
:1000700000F0000EFA6E02EC00F0070B040DF350D6
:10008000F92651EF00F0AFEF00F05DEF00F063EF05
:1000900000F06EEF00F0BCEF00F0CCEF00F0ACEF42
:1000A00000F002EC00F0F86E02EC00F0F76E02ECEB
:1000B00000F0F66E000E37EF00F0070EEA6EE96A08
:1000C000020E37EF00F0200E146E02EC00F0EE6E20
:1000D000142E65EF00F0030E37EF00F0800E816EF6
:1000E000070EEA6EE96AF850136EF750146EF65078
:1000F000156E800E166E0900F550EE18D8A487EF25
:1001000000F0162E7BEF00F0550E37EF00F0135085
:10011000F86E1450F76E1550F66E940E816E000056
:10012000550E826EAA0E826E81820A00070EEA6E5A
:10013000E96A800E136EEE50F56E0F00132E9BEFE2
:1001400000F0840E816E0000550E826EAA0E826E43
:100150008182040E37EF00F0819481EF01F0050EEB
:1001600009EC00F002EC00F07F6E02EC00F07E6E15
:100170000EEC00F037EF00F0050E09EC00F002EC99
:1001800000F07F6E02EC00F07E6E02EC00F015ECE9
:1001900000F0050E37EF00F0FF0E136E23EC00F0B9
:0601A000060E37EF00F02F
:0201E00000001D
:0801E800436F707972696768CA
:1001F0007420412E204E69786F6E203230313800E5
:10020000D00E04EF01F01C0E176E166A162E06EFC4
:1002100001F0172E06EF01F01200000E8D6E7F0E1A
:100220008E6E7F0E8F6EFF0E906E000E916E100E12
:10023000886E000E896EBF0E8A6E000E8B6EF80EF1
:100240008C6E0F01116B196B216B266B2E6B0E01DF
:100250007B0EE16FFE0EE26FFF0EE36FFF0EE46FA9
:10026000BF0EE56FFF0EE66F0F010E6B166B1E6B78
:10027000236B2B6B270E9B6E9C6A240E9E6E900E3A
:100280009D6E9F880E01550EA06FAA0EA06FA091C3
:100290000E01170EB56F090EFD6F0E01550EA06F02
:0A02A000AA0EA06FA08181EF01F00B
:06030000000000EF0FF009
:10040000436E040E0BEC13F0F92631EF06F045EFC6
:1004100006F05BEF06F083EF06F0F1EF08F0E7EF90
:1004200005F0A4EF09F05AEF0AF05BEF0AF08BEF4A
:100430000AF0DDEF0AF004EF0BF0A2EF0BF00DEF86
:100440000CF012EF0CF0B0EF0CF0436E040E0BEC5E
:1004500013F0F926B8EF06F0C8EF06F0D4EF06F077
:10046000E5EF06F0F6EF06F002EF07F012EF07F007
:100470001CEF07F01FEF07F03BEF07F049EF07F025
:100480005CEF07F06EEF07F07CEF07F08CEF07F002
:100490009FEF07F0B0EF07F0C1EF07F0D8EF07F0DC
:1004A000ECEF07F0FDEF07F013EF08F026EF08F090
:1004B0003CEF08F048EF08F05DEF08F074EF08F04B
:1004C00089EF08F09DEF08F0B2EF08F0C9EF08F0EF
:1004D000DEEF08F0436E040E06EC13F0F926010C73
:0E04E000020C040C080C100C200C400C800CBC
:10050000436E050E0BEC13F0F92687EF06F08BEF28
:1005100006F090EF06F094EF06F098EF06F0A3EFE8
:1005200006F0A8EF06F0ACEF06F0436E050E0BECFC
:1005300013F0F926E1EF0AF0F8EF0AF0FEEF0AF007
:10054000436E050E0BEC13F0F926F5EF08F008EFFB
:1005500009F00FEF09F039EF09F047EF09F04BEF21
:1005600009F05BEF09F068EF09F073EF09F086EF2F
:1005700009F096EF09F0436E050E0BEC13F0F92627
:100580008FEF0AF09FEF0AF0B0EF0AF0CAEF0AF01F
:10059000436E050E0BEC13F0F92608EF0BF011EF8C
:1005A0000BF012EF0BF015EF0BF03DEF0BF043EFFC
:1005B0000BF05AEF0BF069EF0BF073EF0BF076EFE7
:1005C0000BF078EF0BF086EF0BF089EF0BF082EF7A
:1005D0000BF083EF0BF0436E050E0BEC13F0F926D6
:1005E000A6EF0BF0D3EF0BF0E4EF0BF0FAEF0BF00C
:0405F00001EF0CF01B
:10060000436E060E0BEC13F0F926A8EF09F0ABEFE2
:1006100009F0AEEF09F0B1EF09F0D2EF09F0EFEF1A
:1006200009F0F2EF09F0F5EF09F0F8EF09F028EF23
:100630000AF0436E060E06EC13F0F9262B0C020CA2
:100640002F0C0F0C060C0D0C2D0C030C2F0C0F0C8B
:10065000000C040C000C2D0C240C2C0C270C250C6D
:10066000240C080C2C0C2E0C270C280C240C280C09
:10067000290C2C0C290C230C0E0C260C010C436E9F
:10068000060E06EC13F0F926060C020C000C020C08
:10069000060C060C060C020C060C060C010C000CD9
:1006A000000C040C000C020C040C040C020C000CDA
:1006B000000C020C060C020C040C040C040C060CBE
:1006C000060C060C060C060C000C436E060E0BEC1A
:1006D00013F0F92638EF11F079EF11F03EEF12F038
:0406E0000CEF12F019
:10070000436E070E0BEC13F0F92647EF12F04DEF96
:1007100012F056EF12F05FEF12F068EF12F071EF87
:1007200012F07AEF12F083EF12F09BEF12F0B1EFBC
:1007300012F0B7EF12F0BDEF12F0C5EF12F0DFEFDD
:1007400012F0FBEF12F0436E070E0BEC13F0F926DC
:1007500036EF00F070EF14F09BEF14F0BCEF14F0E4
:1007600024EF15F053EF15F03BEF1AF058EF1AF0A5
:1007700074EF1DF065EF1AF04BEF21F090EF14F0DD
:1007800018EF22F039EF10F04DEF24F02EEF21F0AA
:10079000436E070E06EC13F0F926A00C060C400C75
:1007A000200C200C200C200C050C080C200C200C1C
:1007B000200C030C040C090C200C200C200C200C29
:1007C000200C200C800C200C200C000C010C070CC1
:1007D000200C200C200C200C020C200C200C200CD7
:0A07E000200C200C200C200C200C33
:10080000436E080EFA6E43500F0B08EC13F0F926F6
:10081000000C010C020C030C040C050C060C070C5C
:10082000080C090C0E0C1A0C0F0C150C0D0C0C0CF2
:10083000436E080E0BEC13F0F92676EF18F09EEFDE
:1008400018F0CDEF18F0F5EF18F00DEF19F018EFE4
:1008500019F032EF19F01200436E080EFA6E435091
:100860000F0B08EC13F0F926000C010C020C030C22
:10087000040C050C060C070C080C090C0E0C110CD2
:100880000F0C150C0D0C0C0C080EFA6E4C500DECE8
:1008900013F0F9263CEF1BF0A8EF1BF0F1EF1BF073
:1008A00005EF1CF005EF1CF036EF1CF057EF1CF0C5
:1008B00078EF1CF099EF1CF0A7EF1CF0C6EF1CF0CE
:1008C000DBEF1CF0436E080EFA6E43500F0B08EC82
:1008D00013F0F926000C010C020C030C040C050C9F
:1008E000060C070C080C090C0E0C140C0F0C100C49
:0408F0000D0C0C0CD3
:10090000436E090E0BEC13F0F92616EF0CF018EFFE
:100910000CF01AEF0CF020EF0CF022EF0CF026EFA9
:100920000CF032EF0CF034EF0CF03AEF0CF040EF3B
:100930000CF044EF0CF048EF0CF04AEF0CF050EFE5
:100940000CF052EF0CF058EF0CF05AEF0CF060EF97
:100950000CF09EEF0CF0A2EF0CF0A6EF0CF0ACEF59
:100960000CF02C50436E090E06EC13F0F926350CF2
:10097000350C450C550C650C670C700C800C210C6B
:10098000220C250C250C270C290C310C320C330CB5
:10099000330C340C370C380C380C190C100C910C2F
:1009A000970C460C2C50436E090E06EC13F0F926FA
:1009B0000C0C1B0C0C0C0C0C0C0C0C0C0C0C0C0C68
:1009C0000C0C0C0C0C0C140C0C0C140C0D0C0D0C55
:1009D0000D0C140C140C0D0C0D0C140C140C0C0C34
:0609E0000C0C0C0C0C0CC9
:100A00000A0EFA6E1950070B0DEC13F0F9266CEF75
:100A10001BF071EF1BF076EF1BF07BEF1BF080EF0C
:100A20001BF085EF1BF088EF1BF08DEF1BF0436E82
:100A30000A0EFA6E43500F0B08EC13F0F926000C67
:100A4000010C020C030C040C050C060C070C080C22
:100A5000090C0E0C0A0C0F0C0B0C0D0C0C0C0A0ED6
:100A6000FA6E32500F0B08EC13F0F926000C010C53
:100A7000020C030C040C050C060C070C080C090CEA
:100A8000160C1B0C1A0C150C0D0C110C5D50436E42
:100A90005D2A0A0E0BEC13F0F92651EF23F05EEFFE
:100AA00023F064EF23F067EF23F06DEF23F073EF93
:100AB00023F079EF23F083EF23F089EF23F08FEF1A
:100AC00023F095EF23F09BEF23F0A1EF23F0A7EFA6
:100AD00023F0ADEF23F0B3EF23F055EF23F0436E97
:100AE0000A0E0BEC13F0F9265FEF0AF05FEF0AF045
:100AF0006FEF0AF07FEF0AF07FEF0AF085EF0AF060
:100B00000B0EFA6E5E503F0B040DF350F92694EF76
:100B100022F0FFEF22F06EEF22F05CEF22F056EFB2
:100B200022F0D1EF05F0B0EF22F007EF23F0A9EFAC
:100B300022F0B7EF22F050EF22F04AEF22F06EEFF2
:100B400022F00FEF23F0A9EF22F0C2EF22F053EFD3
:100B500022F097EF22F086EF22F080EF22F074EF80
:100B600022F05FEF22F0A4EF22F044EF22F08CEFAE
:100B700022F0F7EF22F0A9EF22F062EF22F09EEFD1
:100B800022F047EF22F0D1EF05F06EEF22F07AEF7E
:100B900022F068EF22F059EF22F04DEF22F097EFAC
:100BA00022F05E6AD6EF10F0100E176E172CD5EFFC
:100BB00005F01200370E12B6360EE96EEA6A366A92
:100BC000376A1250070B6AEC02F0EF6E12001250F7
:100BD0000F0B356E0250376E200E19EC06F0020630
:100BE00002AE12000F0E26BE0D0E026E120029ACD0
:100BF000120012500F0BD8A412000190009E2AB8C8
:100C000001802ABA008E0F501200E96E010EEA6EC2
:100C10000E0E37601200D8903730E92637A015EF56
:100C200006F0EF500F0B356E1200EF380F0B356EDC
:100C30001200E96E010EEA6E0E0E37601200D890B7
:100C40003730E92637A02AEF06F0EF50F00B3510C9
:100C5000EF6E12003538136EEF500F0B1310EF6E5E
:100C600012001250D8B4120026BE3CEF06F00F0E50
:100C70000A1607500B6E120006500A6E07500B6ED4
:100C80000850066E0950076E120026AE4CEF06F0B3
:100C90000650086E0750096E0A50066E0B50076E1C
:100CA00012500B6ED6EC21F01CAE12000B503F0B15
:100CB0001D6E1C9E120022B081EF06F023A46BEF84
:100CC00006F03C501C0B0A6E1150030B0A12125016
:100CD0000B6E70EF06F01F0E0A1612501E240B6EDC
:100CE0001E6AD6EC21F027BC78EF06F029A212008C
:100CF0000A50F00BD8B41200140E0A6012000F0E46
:100D00000A16229012001250070B80EF02F00250D8
:100D1000376EAEEF06F0030E376E0C0EAEEF06F038
:100D2000376A020EAEEF06F0376A0D0EAEEF06F030
:100D3000376A0E0E0260A0EF06F00250AEEF06F02A
:100D40000D0EAEEF06F0030E376E0D0EAEEF06F091
:100D5000020E376EAEEF06F00D0E376E366E1232A3
:100D6000123212301F0B25EF02F026BE2382120032
:100D7000B5EC06F0100E05EC06F0D8A4C6EF06F0B0
:100D8000FAEC0CF0D8A4B8EF06F0120022801200A2
:100D9000356A100E19EC06F0FAEC0CF0D8A4C9EF85
:100DA00006F027B424801200B5EC06F0000E05EC26
:100DB00006F0146E200E05EC06F010EC0DF0FAECC7
:100DC0000CF0D8A4D4EF06F01200B5EC06F02280A7
:100DD000200E05EC06F0D8A4F4EF06F0FAEC0CF0C7
:100DE000D8A4E8EF06F0120022901200100E05ECD5
:100DF00006F0200E19EC06F0FAEC0CF0D8A4F6EF91
:100E000006F01200146A200E05EC06F010EC0DF04E
:100E1000356E200E19EC06F0FAEC0CF0D8A402EFB7
:100E200007F01200356A200E19EC06F0FAEC0CF00F
:100E3000D8A413EF07F01200228002EF07F037501A
:100E4000136E3650376E1350366E3706000E05ECB3
:100E500006F0372A000E19EC06F0FFEC0CF0D8A4CF
:100E600025EF07F03650376E356A000E19EC06F0A4
:100E700027B424801200000E05EC06F0100E19ECC9
:100E800006F0FAEC0CF0D8A43BEF07F027B424806E
:100E90001200000E05EC06F0146E200E05EC06F0B4
:100EA00010EC0DF0356E200E19EC06F0FAEC0CF09B
:100EB000D8A449EF07F012002280200E05EC06F0BE
:100EC000146E000E10EC0DF0356E200E19EC06F0CD
:100ED000FAEC0CF0D8A45DEF07F01200200E05EC40
:100EE00006F0000E19EC06F0FAEC0CF0D8A46EEF48
:100EF00007F027B424801200B5EC06F0200E05ECB4
:100F000006F0D8A48AEF07F0FAEC0CF0D8A47CEF36
:100F100007F0120022801200000E05EC06F0146E9D
:100F2000200E05EC06F003EC0DF0356E200E19ECEA
:100F300006F0FAEC0CF0D8A48CEF07F01200228037
:100F4000200E05EC06F0146A03EC0DF0356E200E51
:100F500019EC06F0FAEC0CF0D8A4A0EF07F01200A0
:100F6000B5EC06F0000E05EC06F0146E100E05EC64
:100F700006F010EC0DF0FAEC0CF0D8A4B0EF07F08E
:100F80001200100E05EC06F0146E200E05EC06F0B3
:100F9000100E19EC06F01450356E200E19EC06F008
:100FA000FAEC0CF0D8A4C1EF07F027B424801200AB
:100FB000372A200E05EC06F03706200E19EC06F055
:100FC000FAEC0CF0D8A4D8EF07F03650376E356A3B
:100FD000200E19EC06F01200B5EC06F02280000E8F
:100FE00005EC06F0D8A4FBEF07F0FAEC0CF0D8A45F
:100FF000EFEF07F0120022901200372A100E05ECD6
:1010000006F03706100E19EC06F0FAEC0CF0D8A436
:10101000FDEF07F03650376E356A100E19EC06F00A
:1010200027B424801200200E05EC06F0146E200E6A
:1010300005EC06F003EC0DF0356E200E19EC06F011
:10104000FAEC0CF0D8A413EF08F01200372A000EC7
:1010500005EC06F03706000E19EC06F0FAEC0CF081
:10106000D8A426EF08F03650376E356A000E19EC1A
:1010700006F027B424801200356A000E19EC06F041
:10108000FAEC0CF0D8A43DEF08F027B4248012004D
:10109000000E05EC06F0146E100E05EC06F010ECD8
:1010A0000DF0356E000E19EC06F0FAEC0CF0D8A439
:1010B00048EF08F027B424801200000E05EC06F07B
:1010C000146E100E05EC06F0000E19EC06F014502C
:1010D000356E100E19EC06F0FAEC0CF0D8A45DEFAA
:1010E00008F027B424801200000E05EC06F0146E00
:1010F000200E05EC06F010EC0DF0356E000E19EC2C
:1011000006F0FAEC0CF0D8A474EF08F027B42480B1
:1011100012002280000E05EC06F0146E000E10EC9A
:101120000DF0356E000E19EC06F0FAEC0CF0D8A4B8
:101130008AEF08F027B424801200000E05EC06F0B8
:10114000146E100E05EC06F003EC0DF0356E000E7B
:1011500019EC06F0FAEC0CF0D8A49DEF08F027B4D7
:1011600024801200000E05EC06F0146E200E05EC33
:1011700006F0000E19EC06F01450356E200E19EC36
:1011800006F0FAEC0CF0D8A4B2EF08F027B42480F3
:101190001200000E05EC06F0146E200E05EC06F0B1
:1011A00003EC0DF0356E000E19EC06F0FAEC0CF0C5
:1011B000D8A4C9EF08F027B4248012002280000EC2
:1011C00005EC06F0146A03EC0DF0356E000E19EC18
:1011D00006F0FAEC0CF0D8A4DFEF08F027B4248076
:1011E000120012380F0BA0EF02F0DAEC05F0FF0E40
:1011F00036180016FF0E3718011626BE03EF09F049
:1012000023BA0180120028B6120023BA008E120001
:10121000DAEC05F036500012375001121200B5EC2E
:1012200006F0DAEC05F02290F7EC05F027A826EF9F
:1012300009F024AE26EF09F037A626EF09F026B014
:1012400037EF09F027BE37EF09F0120026A02FEF85
:1012500009F024AC2FEF09F036B637EF09F036501D
:101260000014D8A437EF09F037500114D8A4228015
:10127000120028B63FEF09F026BE42EF09F0006ADF
:10128000016A1200800E0016260E0116120012507E
:101290000F0B026E1200B5EC06F028BA56EF09F0FB
:1012A00012500F0B0218D8B422801200C7EC16F0AF
:1012B000010E221A120002280F0B026E26AE65EFF5
:1012C00009F002500D08D8A0026A010E0C6E12003F
:1012D000020602AE70EF09F00F0E26BE0D0E026E72
:1012E000FF0E0C6E12001250070B6AEC02F0146E27
:1012F00012A67EEF09F014501C12120014501C1498
:10130000D8A400861450FF0A1C161200B5EC06F093
:10131000DAEC05F02290F7EC05F036500014D8A472
:10132000120037500114D8B422801200B5EC06F038
:1013300028BAA1EF09F012500F0B0218D8A422808E
:101340001200C7EC16F0120012500F0B00EF03F062
:1013500027A4AEEF09F0279424801200278424806C
:101360001200000EB1EC0CF0100EB1EC0CF0200EDF
:10137000B1EC0CF0300EB1EC0CF0400EB1EC0CF016
:10138000500EB1EC0CF028BEC9EF09F026BECFEF2D
:1013900009F0600EB1EC0CF0700EB1EC0CF026AC64
:1013A0003D6A1200E6EC0CF022B6120029A8DEEF2E
:1013B00009F02AB4DEEF09F02A8412000550186EF5
:1013C000300BC7EC0CF0700E176EEF6AE92AD8B438
:1013D000EA2A172EE5EF09F01850056E12000A0EE2
:1013E000106E1200100E106E1200100E0A1A12006B
:1013F0000501F88101EEBEF011EE00F0010110517F
:10140000D8A40AEF0AF0E7380F0BED6EE7500F0B88
:101410000DEF0AF00C0EED6E0C0EED6E040EE95E93
:10142000030EE126E7380F0BED6EE7500F0BED6E64
:10143000E906E12AE6500F0BED6EE7380F0BED6E73
:10144000E906E6500F0BED6EE7380F0BEF6E12005A
:101450000501F88101EEBEF011EE00F0010110511E
:10146000D8A43AEF0AF0E7380F0BED6EE7500F0BF8
:101470003DEF0AF00C0EED6E0C0EED6E020EE95E05
:10148000E126E7380F0BED6EE7500F0BED6EE90626
:10149000E12AE7380F0BED6EE6500F0BED6EE90613
:1014A000E7380F0BED6EE7500F0BD8B40C0EEF6E54
:1014B00037EF06F012001250070B6FEF05F0600EC9
:1014C000E96EA00EBBEC0CF0200EE96E600EBBECDA
:1014D0000CF0A00EE96E200EBBEC0CF01200700EAA
:1014E000E96EA00EBBEC0CF0200EE96E700EBBECAA
:1014F0000CF0A00EE96E200EBBEC0CF01200600E9A
:10150000E96E200EBBEC0CF01200700EE96E200E9E
:10151000BBEC0CF012001250030BBBEF02F0400EBC
:10152000E96E500EBBEC0CF0300EE96E400EBBECD9
:101530000CF0200EE96E300EBBEC0CF01200300EF9
:10154000E96E000EBBEC0CF0400EE96E300EBBEC09
:101550000CF0500EE96E400EBBEC0CF02480120033
:10156000200EE96EA00EBBEC0CF0300EE96E200EE2
:10157000BBEC0CF0400EE96E300EBBEC0CF0500EE4
:10158000E96E400EBBEC0CF0A00EE96E500EBBEC09
:101590000CF012000D0E376E000E05EC06F0186E02
:1015A000376A0D0E366E1FEC07F0376A1850356E2D
:1015B000000E19EC06F0248012001250030B95EF78
:1015C00002F012380F0B136E26BEF3EF0AF00A502A
:1015D000080B13100A6E38BE12003A500A14382451
:1015E0000A6E388E12000A50100B13100A6E120089
:1015F0003B04136E12381314396E1200386A12A8A5
:1016000012003B50386E120012500F0BC8EF02F060
:1016100004500B6E1CAE12000B503F0B1D6E1C9E37
:10162000120012001D501E6E120029BC1EEF0BF09E
:1016300028B61EEF0BF028AE28EF0BF0010EEA6E75
:10164000000EE96EF00EEF162AEC22F0EF121200F7
:1016500004380F0B23AA000E356E020E376E000EF3
:1016600019EC06F004500F0B23AA000E356E010E84
:10167000376E000E19EC06F01200300EE96E000E07
:10168000BBEC0CF012003C5029B20A501F0B0A6E42
:10169000020E376E000E05EC06F03538F00B0B6EBF
:1016A000010E376E000E05EC06F00F0B0B12D6EC98
:1016B00021F012003D50136E000EE96E010EEA6E2D
:1016C000EF380F0B3D6E0F0EEF161338F00BEF12C5
:1016D0001200000EE96E010EEA6E0F0EEF163D3895
:1016E000F00BEF1212004EA00186120001861200CC
:1016F0000196070EEA6EE96AEF50D8B412004EB2B6
:10170000018612001200F20E8AEF0BF0F10E8AEF42
:101710000BF0F30E146EF00E09EC00F0145009EC0F
:1017200000F0070E136E010EEA6E200EE96EEE5009
:1017300009EC00F0132E97EF0BF00D0E4F6E506A70
:101740004E8012001250070BEBEF02F026AEB9EFFD
:101750000BF0010E376E200E05EC06F03538F00B5D
:10176000056E376A200E05EC06F00F0B0526CEEF4E
:101770000BF00C0E376E200E05EC06F026A0CDEF18
:101780000BF00A0DF350056E0B0E376E200E05ECB4
:1017900006F00F0B0526CEEF0BF0056E29A4120004
:1017A0003F0E05161200E6EC0CF022B61200C8EC53
:1017B0000CF0E950E16EEA50E26E200EE96E010E87
:1017C000EA6EBFEC0CF0120080EC1EF04EB412007A
:1017D000E6EC0CF022A6F1EF0BF0200EB1EC0CF0D1
:1017E0001200C8EC0CF0200EE16E010EE26EBFECB0
:1017F0000CF01200F00E051612380F0B0526D3EF71
:101800000BF012380F0BD8B4E4EF0BF0136E055049
:10181000F00B1324056EE4EF0BF022901250070B2F
:1018200018EF04F012501F0B80EF04F00380120039
:1018300001861200019603A0120003900186120097
:1018400003821200019624BE0186120003A22FEF2C
:101850000CF00392039403B812007BEC13F0000029
:101860000000120003861200019603A612000396E0
:1018700001861200019603A4120003A20186120041
:10188000258C0398259E1200259C0388258E120026
:10189000038A1200019603AA1200039A018612001D
:1018A000038C1200019603AC1200039C0186120007
:1018B000038E1200019603AE1200039E01861200F1
:1018C00024BE99EF0CF025BE6DEF0CF025AC6DEF4A
:1018D0000CF04EEC19F00196120025AE120003A296
:1018E00096EF0CF06DEC19F0146A070E156E24AA31
:1018F0007EEF0CF0249AE73880EF0CF0248AE75052
:101900000F0B356E1450376E900E19EC06F0070E63
:101910003726900E19EC06F0142A24AA91EF0CF049
:10192000E650152E77EF0CF072EC19F00196039A41
:1019300012004EEC19F00196259E120001960FBA86
:101940000186120001862AAE0196120001962ABC79
:1019500012002AAE0186120001964EBA01861200CC
:101960001200E96E010EEA6E070E136EEE6A132E78
:10197000B6EF0CF01200E16E010EEA6EE26E070E99
:10198000156EEE50E66E152EC1EF0CF01200056ECE
:10199000990E0518D8B4DEEF0CF09B0E0518D8B4DC
:1019A000E1EF0CF0020EEA6EE96A0550070DF35004
:1019B000E926D8B0EA2AF450EA261200800EE2EFB7
:1019C0000CF0900EE96E010EEA6E1200229627BC12
:1019D000EDEF0CF029A2F5EF0CF00550990AD8B400
:1019E000120005509B0AD8B412003E50055CD8B0D6
:1019F0002286120036503718D8A4372A120037062C
:101A0000365037181200142622B0142A2290105093
:101A1000145CD8A00EEF0DF02280120014501200BA
:101A200022B0010F145C2290D8B012001024228042
:101A3000120026A028EF0DF00A500B0AD8A46AEF76
:101A40000DF00B506C0AD8A46AEF0DF037EF0DF0D3
:101A50002050020AD8A43BEF0DF00A50070AD8A480
:101A60006AEF0DF00B50230AD8A46AEF0DF00501C0
:101A7000F8916AEF0DF022A44BEF0DF00A50070A1F
:101A8000D8A46AEF0DF00B503E0AD8A46AEF0DF00F
:101A9000116A126A120028A46AEF0DF029BA6AEFDF
:101AA0000DF00A500E0AD8A46AEF0DF00B501A0A76
:101AB000D8A45EEF0DF0116A126A12000B502F0AC3
:101AC000D8A46AEF0DF0020E116E1C0E126E040EF9
:101AD0003D6E12000A50186E0B50196E29A2B0EF1D
:101AE0000DF0040E0A6077EF0DF0B0EF0DF0130E5D
:101AF0000A647FEF0DF0100E185EB0EF0DF0F86A7B
:101B00008F0EF76EF66A800E816ED8900A30136ED3
:101B10000B30F626D8A08FEF0DF0F74AF82A1350B5
:101B2000F726D8B0F82A08000BB09AEF0DF0F53878
:101B30009BEF0DF0F5500F0B116EF86A9B0EF76ED0
:101B4000F66A0B50F626D8A0A8EF0DF0F74AF82A4F
:101B50000A50F726D8B0F82A0800F550126E120085
:101B60004450F86E4550F76E4650F66E800E816E0A
:101B7000D8901830136E1930F626D8A0C2EF0DF0A9
:101B8000F74AF82A1350F726D8B0F82A080019B0F7
:101B9000CDEF0DF0F538CEEF0DF0F5500F0B116EC7
:101BA0004750F86E4850F76E4950F66E1950F626B9
:101BB000D8A0DDEF0DF0F74AF82A1850F726D8B074
:101BC000F82A0800F550126E1200146EB00FE96E7C
:101BD000010EEA6EEF5019EC03F0136EEF503FEC7C
:101BE00003F0186E2AB2FAEF0DF00F012FAB1DEFC4
:101BF0000EF02A8227BC16EF0EF029BC16EF0EF06D
:101C000029B216EF0EF026AC0CEF0EF0020E1418EF
:101C1000D8B413801DEF0EF026AE25EF0EF0425023
:101C20001418D8B426EF0EF025EF0EF00C0E141891
:101C3000D8A426EF0EF025EF0EF027A426EF0EF025
:101C400042501418D8A426EF0EF0188013508D6E51
:101C50001850916E12005952D8B431EF0EF0592E2F
:101C60001200146E17503F0AD8A44EEF0EF0215008
:101C70001418D8A4120022A21200229A4E82229294
:101C80004E9A25A64AEF0EF0280E4D6E259623900B
:101C900090EF0EF0FF0E216E65EF0EF022B21200F3
:101CA00022822FEC24F022BA12001450216E175019
:101CB000136E13A060EF0EF0142A133259EF0EF0DA
:101CC000250E145CD8A078EF0EF028B66FEF0EF05A
:101CD00026BE6EEF0EF001906FEF0EF0009E239A7D
:101CE00022BEB6EF0EF03050316E500E596E12001B
:101CF00022BE1200500E596E22BCB1EF0EF069ECFC
:101D00001AF078EC1AF0046E00000000FF0AD8B454
:101D100065EF0EF00AEC1BF023B0120022BA12009D
:101D2000FEEC1AF0FF0E0418D8A49AEF0EF04D6ADC
:101D300065EF0EF0238AB9EC1EF04E9A0450040AA7
:101D4000D8B44E8A0450060AD8B44E8A29BC120070
:101D500028B6120026BEAFEF0EF001801200008EF2
:101D600012001450C8EC03F0306E120023AE00EFE6
:101D70000FF0239E229E248012004EBE120011EE10
:101D8000B0F00F0E146E0C0EE66E142EC4EF0EF0B3
:061D9000FF0E426E12007E
:101E000000EE00F0EE6A5F0EE918D8A402EF0FF0C2
:101E1000EE6A0A0EEA18D8A408EF0FF07F6A7E6A0D
:101E20000EEC00F0206E1A0AD8B4228420501B0851
:101E3000D8A0206A070E7E6E0EEC00F00501FF0AA6
:101E4000D8B4F883030E7E6E05010EEC00F0F26F3D
:101E50000EEC00F0F36F0EEC00F0F46F2FEC24F0BA
:101E6000800E816EF86A540EF76E2050080D400EF9
:101E7000F324F66ED8B0F72A0900F5503E6E09003B
:101E8000F550266E0900F550276E0900F5500F0B2E
:101E90003A6EF5380F0B5B6E0900F5503B6E09008A
:101EA000F550286E0900F5380F0B280DF450146E0C
:101EB000F350136EAA0E09EC00F00900F550296EDC
:101EC000080E20247E6E0EEC00F00F6EEBEC1CF082
:101ED000800E816E700E1324F66ED8B0142A510E47
:101EE000F76E1450F726080EEA6EE96A280E136E94
:101EF0000900F550EE6E132E78EF0FF0530EF76ECB
:101F0000280EF66EC80E136E0900F550EE6E132EF5
:101F100084EF0FF0F86A530EF76EF00EF66E060EB1
:101F2000EA6ED00EE96E280E136E0900F550EE6EC3
:101F3000132E95EF0FF0550EF76E2050040DF32879
:101F4000880FF66ED8B0F72A0900F550446E0900E4
:101F5000F550456E0900F550466E550EF76E20504F
:101F6000040DF328180FF66ED8B0F72A0900F550C3
:101F7000476E0900F550486E0900F550496EFF0E96
:101F8000216E24800501FF0EFE6F170E146E69ECA2
:101F90001AF0526E1D0E146E69EC1AF0536E0B0E91
:101FA000146E69EC1AF0546E110E146E69EC1AF08E
:101FB000556E050E146E69EC1AF0566E150E146E01
:101FC00069EC1AF0576E388E398E0A0E106EFF0EBD
:101FD000426E71EC1EF0140E1A6EBDEC0EF0A8EC01
:101FE00024F0800ED56E420ED66E61EC1EF082ECAF
:101FF00024F0D1EC1DF001EC22F0136A146A132EC8
:10200000FFEF0FF0142EFFEF0FF00DEC14F09950CE
:1020100099505A0E09EC00F00E01CAAB0DEF10F00A
:10202000CA9B280ED36E0501F551D8B421EF10F0EC
:10203000F72F21EF10F0F62F21EF10F0F54FF5EF0D
:1020400023F04EA02AEF10F0502E2AEF10F04F4E42
:10205000D0EC1EF025A633EF10F04B2E33EF10F02E
:102060004A4E17EF1BF00501FE29030BFE6F65EFCB
:1020700003F022BE0CEF10F022BC0CEF10F023B0E6
:102080000CEF10F04EBE0CEF10F04D50D8B44CEFEA
:1020900010F04D4E4AEC0EF022A4D6EF10F00FBA1D
:1020A000D6EF10F04EB00CEF10F005010A50030A05
:1020B000D8A490EF10F00B509D0AD8A479EF10F03F
:1020C0000650FB6F0750FC6F200EE96E700EBBECE4
:1020D0000CF0C1EC23F0D8B45F805E503F0B090ACE
:1020E000D8B476EF10F0090A0F0AD8B45F8AD6EF99
:1020F00010F00B50550AD8A488EF10F05FA0D6EF6F
:1021000010F0910E5E6E00B65E8C5F82D6EF10F01E
:102110000B50710AD8A4C9EF10F05F9EA5EF10F024
:102120000A50060AD8A4C9EF10F00B50AC0AD8A484
:10213000D6EF10F00650040AD8A4AEEF10F0075006
:10214000910AD8A4AEEF10F05F8E890E5E6E5F8CA0
:102150000150FA6F0550F96FD6EF10F00650030AE0
:10216000D8A4BBEF10F007506D0AD8A4BBEF10F055
:102170008F0EA6EF10F00650040AD8A4D6EF10F088
:1021800007508E0AD8A4D6EF10F05F8E8F0EA6EF00
:1021900010F00A50030AD8A4D6EF10F00B50910AA1
:1021A000D8A4D6EF10F05EBE80EF05F019EC0DF06C
:1021B0000000F6EF10F024B2E1EF10F0248202EC00
:1021C00000F00A5009EC00F00B5009EC00F036501A
:1021D00009EC00F0365009EC00F0025009EC00F078
:1021E000005009EC00F0200E38EC22F028AAFEEF97
:1021F00010F00D500E6E0C500D6E0C6A26AE17EFDF
:1022000011F00A503C6E0B50FF0AD8A412EF11F0E7
:102210000A500F0B0F0AD8A412EF11F0100E0A1675
:1022200017EF11F00B2AD8B40A2A18EF11F00B2A75
:10223000FEEC1EF011500F0B136E23A225EF11F0D0
:10224000020E136E23842AEF11F023941350020A16
:10225000D8A422902392135000EC02F01F52D8B45D
:1022600035EF11F01F060CEF10F01C8A0CEF10F088
:1022700023B03EEF12F028A866EF11F01A52D8B43E
:1022800066EF11F01A2E66EF11F029A254EF11F04B
:102290003F0E2A1624A650EF11F02A8C66EF11F09B
:1022A00024B82A8E66EF11F03F0E2416248024A64F
:1022B0005DEF11F0248E66EF11F024A863EF11F0AA
:1022C000248C66EF11F028B6BDEC0EF00501FD532D
:1022D000D8B43EEF12F0FD2F3EEF12F00F9A4EB839
:1022E0000F8A29A23EEF12F0248E4EB8249E3EEFB4
:1022F00012F023B00CEF12F00501F8B10CEF12F060
:1023000024A00CEF12F028A68CEF11F024BE8CEF65
:1023100011F024ACE1EF11F027B493EF11F0BDEC14
:102320000EF0E1EF11F029BC74EF21F028B652EF66
:1023300017F028BE68EF17F026BCA5EF17F027B6F8
:10234000FEEF16F027BCEFEF17F029B2EFEF17F012
:10235000010EE26EBE0EE16E376A000E05EC06F06D
:10236000146E100E05EC06F0156E35A2BFEF11F0DD
:102370000A0EE76EE106AF0EE164E1EF11F01550D1
:10238000090AD8B4D9EF11F03750020AD8B4CEEF09
:1023900011F037500D0AD8A4D6EF11F01450090AE5
:1023A0000B0ED8A40C0EE76EDBEF11F01450DAEF31
:1023B00011F00C0EE76E372AE1060D0E3764ADEF13
:1023C00011F0249022A40CEF12F027A40CEF12F0CD
:1023D000C1EC23F0D8B40CEF12F0010EEA6E600EDF
:1023E000E96EEF500F0BD8A40CEF12F0010EEA6E5D
:1023F000BB0EE96EEF500C0AD8A40CEF12F00A0ED7
:10240000136EE906EE50EF6EE906132E01EF12F09F
:102410000C0EEF6EF8EF11F0F5EC21F00E01CDABE4
:102420003EEF12F0FF0E8E6E906E995009EC00F0A8
:102430002FEC24F002EC00F00F0BA3EF03F0500E92
:10244000F76E000E39EF12F0500EF76E1E0E39EFD8
:1024500012F0238E500EF76E140E39EF12F0238E09
:10246000500EF76E0C0E39EF12F0238E500EF76EF1
:102470007A0EF66E10EC13F00CEF10F08F503F0B4D
:10248000176EFF0E8E6E906E1B5080EF03F0000EE5
:10249000E5EC0DF0FE0E97EF12F0000E2BEC0EF0B7
:1024A000010EE5EC0DF0FD0E97EF12F0060E2BEC91
:1024B0000EF0020EE5EC0DF0FB0E97EF12F00C0E95
:1024C0002BEC0EF0030EE5EC0DF0F70E97EF12F08B
:1024D000120E2BEC0EF0040EE5EC0DF0EF0E97EF64
:1024E00012F0180E2BEC0EF0050EE5EC0DF0DF0EE1
:1024F00097EF12F01E0E2BEC0EF0060EE5EC0DF031
:10250000BF0E97EF12F017B08CEF12F024B693EFD6
:1025100012F0248690EF12F024A693EF12F0249686
:10252000140E1A6E2498070EE5EC0DF07F0E906ED7
:102530001B2A39EF10F017B0A4EF12F024B8ABEF5C
:1025400012F02488A8EF12F024A8ABEF12F0249820
:10255000140E1A6E2496080EE5EC0DF0FE0EF7EF41
:1025600012F0090EE5EC0DF0FD0EF7EF12F00A0E79
:10257000E5EC0DF0FB0EF7EF12F02DEF1EF00B0E59
:10258000E5EC0DF0F70EF7EF12F029A0D9EF12F0FD
:1025900017B0D1EF12F04EB8D9EF12F04E88D5EF48
:1025A00012F04EA8D9EF12F04E980501140EFD6FEF
:1025B0004E960C0EE5EC0DF0EF0EF7EF12F029A0A1
:1025C000F3EF12F017B0EBEF12F04EB6F3EF12F09C
:1025D0004E86EFEF12F04EA6F3EF12F04E96140E69
:1025E0000501FD6F4E980D0EE5EC0DF0DF0E8E6EC1
:1025F0001B2A39EF10F00E0EE5EC0DF0BF0E8E6EBB
:102600001B6A22BC02EF16F039EF10F0FA6E43504D
:10261000020DF3501200FA6E4350040DF3501200F5
:10262000228E2490BDEC0EF0010EEA6EB00E23A6B1
:10263000010FE96EF86A800E816E23960900F5504D
:102640007F0BEE6EF5AE1EEF13F012006AEC14F085
:102650007BEC19F0D5EC15F047EC14F0186E20184F
:10266000D8A458EF13F027AE3CEF13F0E12A020E86
:10267000416E2F6A3CEF13F047EC14F0E66E2F2604
:10268000412A16504118D8A43CEF13F027AE76EF3C
:1026900013F047EC14F02F26239847EC14F02F503A
:1026A000FF0A010F000AD8B47CEF16F02FEF12F0EA
:1026B00027AC62EF13F01850190AD8A46CEF13F08E
:1026C0003CEF13F029A26CEF13F01850050AD8A4C0
:1026D0006CEF13F03CEF13F0239847EC14F0185014
:1026E000FF0AD8A429EF12F035EF12F0239847EC37
:1026F00014F07CEF16F06AEC14F003EC01F003EC3C
:1027000001F00C0EE26EE16A27AEBFEF13F03F6AF4
:10271000000E77EC19F0040EE66E2F6A640E186E48
:10272000EF503F0AD8B4BAEF13F0EF503D0AD8B4D7
:10273000BAEF13F0EF50390AD8B4BAEF13F0EF50F4
:10274000E66EEF502F26182EBAEF13F02F50FF0A27
:10275000010FE66E200E186EFF0EE66E182EACEF1F
:1027600013F0D6EC13F03F50E66E050E196EF9EC3F
:1027700014F01200E92AD8B4EA2A90EF13F0060EFA
:10278000EA6EE96A860E416E186AEF50E66E182A04
:102790000F0E1818D8A4D0EF13F0EF500F0B3F6EA8
:1027A000EE50412EC5EF13F0B1EF13F0500EE66E70
:1027B000720EE66E6F0EE66E670EE66E720EE66ED7
:1027C000610EE66E6D0EE66E200EE66E325029BE8C
:1027D00008080F0B300FE66E33500F0B300FE66E0C
:1027E00034500F0B300FE66E090E136EFF0EE66EBF
:1027F000132EF7EF13F01200D4EC05F0849ED4EC06
:1028000005F08888D4EC05F0848ED4EC05F08D9822
:102810008898D4EC05F0849E1200D4EC05F0849ED8
:10282000D4EC05F08D988898D4EC05F0848ED4EC27
:1028300005F0888803EC01F003EC01F01200146E3F
:10284000080E136ED4EC05F01436D8B02CEF14F04B
:102850008D9888982DEF14F08888D4EC05F0848E3C
:10286000D4EC05F0849E132E22EF14F08888D4EC6B
:1028700005F0848ED4EC05F08DA843EF14F00DEC38
:1028800014F024EF12F0D4EC05F0849E1200888836
:10289000080E136ED4EC05F0848ED4EC05F0D890BD
:1028A0008DB8D8801436D4EC05F0849E132E4AEFF0
:1028B00014F023A85EEF14F08D988898D4EC05F0FE
:1028C000848ED4EC05F0849E888823A80DEC14F047
:1028D00014501200FF0E8E6E906E8D6A916A120077
:1028E00023987F6A7E6A0EEC00F0176E0EEC00F003
:1028F000196E0EEC00F0FF0AD8A42388010E23B84D
:102900000D0E09EC00F0175027B0800909EC00F01B
:1029100019500F0BF00909EC00F023A839EF10F063
:102920000B0E09EC00F0B00E09EC00F0110E09ECF2
:1029300000F039EF10F0AEEC16F06AEC14F0A9ECF0
:1029400015F0B9EC15F0D5EC15F0200E186E47EC2B
:1029500014F009EC00F0182EA7EF14F002EC00F0D0
:10296000FF0AD8A4A5EF14F0239847EC14F0FF0E4B
:1029700009EC00F039EF10F0AEEC16F06AEC14F050
:10298000196AA9EC15F0B9EC15F00C0EE26EE16ACB
:10299000030E09EC00F002EC00F0FF0AD8B4F1EFEE
:1029A00014F01350800AD8B4E6EF14F013508A0ADA
:1029B000D8B4EAEF14F0200E156E02EC00F0E66ECB
:1029C000152EDDEF14F0192AC8EF14F0F9EC14F00D
:1029D000C5EF14F0F9EC14F0030E09EC00F0C1EFB0
:1029E00014F0F9EC14F0030E09EC00F0248039EF38
:1029F00010F00C0EE26EE16AFCEC13F0A00E23BCAA
:102A000002091FEC14F02E501FEC14F02D501FEC97
:102A100014F0200E156EE6501FEC14F0152E0BEF7F
:102A200015F0200E2D26D8A01EEF15F02E4A238C6F
:102A30000DEC14F0192EFCEF14F01200192E09EF12
:102A400015F00DEC14F01200040E09EC00F0AEECE1
:102A500016F06AEC14F0A9EC15F002EC00F0196E17
:102A6000B9EC15F0FCEC13F0A00E23BC02091FEC2E
:102A700014F02E501FEC14F02D501FEC14F0FF0E2C
:102A80001FEC14F00DEC14F0342A090E34644BEFF3
:102A900015F0346A332A192E30EF15F0040E09ECC4
:102AA00000F039EF10F0AEEC16F06AEC14F0AA0E5C
:102AB00009EC00F0A9EC15F0B9EC15F02E503F6EC2
:102AC0002D50406E40502D6E3F502E6ED5EC15F0BF
:102AD00047EC14F0196E239847EC14F003EC01F066
:102AE0001950FF0AD8A47AEF15F0FF0E09EC00F098
:102AF00091EF15F0860E25BA010E2D26D8A083EF92
:102B000015F02E4A238CD5EC15F0150E186E47ECF7
:102B100014F009EC00F0182E87EF15F0239847EC1D
:102B200014F002EC00F0FF0AD8B4A3EF15F025BAB8
:102B30009FEF15F0A00E4026D8A062EF15F03F4A97
:102B4000238C62EF15F0050E09EC00F0248039EFBC
:102B500010F002EC00F0259A13BE258A0F0B326E9E
:102B600002EC00F013380F0B336E13500F0B346E62
:102B7000120033500A0DF3502D6E34500F0B2D24DC
:102B800025BACAEF15F0A00DF4502E6EF3502D6E3D
:102B9000CCEF15F02E6E2D6A3250070B200DF3503E
:102BA0002E26239C32B6238C1200FCEC13F0A00ED0
:102BB00023BC02091FEC14F02E501FEC14F02D5012
:102BC0001FEC14F0FCEC13F0A10E23BC02091FEC67
:102BD00014F0238812006AEC14F0A0EC24F0239C7B
:102BE000FF0E316E306E130E326E336E346EB4ECF7
:102BF00016F0228C24942590249024A24EEF16F0F7
:102C00002492120003B239EF10F0186A3150FF0A13
:102C1000D8B44EEF16F03150200AD8B488EF16F031
:102C20003150400AD8B4EBEF15F03150800AD8B4D7
:102C300052EF16F024B42BEF16F0080E3160EBEFD4
:102C400015F03150326E130E336E346EB4EC16F054
:102C500024844EEF16F025B03BEF16F0060E29BE89
:102C6000040E3160EBEF15F025803150336EB4EC7B
:102C700016F04EEF16F0050E29BE030E3318D8A439
:102C800048EF16F0010E29BE020E3160EBEF15F091
:102C90003150346E25902494B4EC16F0FF0E316E52
:102CA00039EF10F03250130AD8B0EBEF15F0335073
:102CB000130AD8B4EBEF15F03450130AD8B4EBEF85
:102CC00015F0080E29BE3226259A29BE258AB9ECB0
:102CD00015F029BE9CEF1FF024BE8CEF16F027BE26
:102CE00078EF16F025BE78EF16F025BC8CEF16F0C5
:102CF000A7EC16F026EF13F027BC82EF16F029A2FE
:102D000088EF16F0070E406E060E3F6E248A03848D
:102D1000A7EC16F039EF10F027BC92EF16F029A2BD
:102D2000A1EF16F0A7EC16F09AEC19F02050E66E21
:102D300072EC19F0248A800EB1EC0CF0038439EFA8
:102D400010F0A7EC16F07BEC13F039EF10F0AEECBE
:102D500016F06AEC14F0A0EC24F01200229C2590EE
:102D6000FF0E316E24801200500EF76E2A0EF66EA2
:102D700012EC13F0E92A3250130A130ED8A42FECE8
:102D800005F0EE6E3350EE6E3450EF6E12001250BE
:102D90000F0B136ED8A4E1EF16F00D50010AD8A462
:102DA000E1EF16F00E50010AD8A4E1EF16F0025040
:102DB000D8B4FAEF16F0010AD8B4FAEF16F0FCEF27
:102DC00016F01350D8A4F5EF16F00DAEF5EF16F08F
:102DD0000EAEF5EF16F00250D8B4FAEF16F00D0A69
:102DE000D8B4FAEF16F0FCEF16F013500218D8A47E
:102DF000FCEF16F02290120022801200BDEC0EF0C3
:102E000011EEB0F0010E176EE1260D0E376E23980D
:102E1000000E05EC06F0186E100E05EC06F0020A26
:102E2000D8A41CEF17F01850090AD8A41CEF17F00B
:102E30000B0EE76E48EF17F03550020AD8B448EF92
:102E400017F026A234EF17F03550080BD8A430EF56
:102E500017F03550030AD8A43EEF17F00F0E186E86
:102E60001750426E3EEF17F03550010AD8B430EFDC
:102E700017F03550080AD8B430EF17F018502CEC82
:102E800004F0E76E23A848EF17F0E12A0A0EE76E78
:102E9000172A3706E12A010E3718D8A407EF17F0D2
:102EA000E1EF11F0BDEC0EF011EEB0F0010EE126F5
:102EB0000C0E376E000E05EC06F017EC05F0E66E12
:102EC0003706FF0E3718D8A45AEF17F0E1EF11F0CC
:102ED000BDEC0EF011EEB0F0010E176EE126172AD0
:102EE0000D0E376E000E05EC06F0186E100E05EC98
:102EF00006F0020AD8A486EF17F01850090AD8A4E1
:102F000086EF17F00B0EE76E9CEF17F035A292EFED
:102F100017F01850070AD8A49CEF17F00A0EE76EB6
:102F20009CEF17F018500F0B0F0AD8B49CEF17F056
:102F3000185062EC04F0E76E172A3706E12A375082
:102F4000D8A472EF17F0E1EF11F0BDEC0EF011EE26
:102F5000B0F0020E176EE126172A0C0E376E100E17
:102F600005EC06F035A4B7EF17F00B0EE76EE12A7B
:102F7000100E05EC06F0186E000E05EC06F00F0AB8
:102F8000D8A4C7EF17F01850D8B4E5EF17F01850D1
:102F9000060AD8A4DAEF17F03550090AD8B4D6EFEC
:102FA00017F035500E0AD8A4DEEF17F00B0EE76EBF
:102FB000DEEF17F0355062EC04F0E76E18A0E5EF95
:102FC00017F01750426EE5EF17F0172A3706E12A7F
:102FD000020E3718D8A4B8EF17F0E1EF11F0BDECEE
:102FE0000EF0E106376A100E05EC06F0000AD8A4D0
:102FF00000EF18F0000E05EC06F000EC04F0E76EB0
:10300000E106372A100E05EC06F0186E000AD8B457
:103010000FEF18F01850040AD8A415EF18F0000E9E
:1030200005EC06F000EC04F0E76EE106372A000E2E
:1030300005EC06F0186E000AD8B46CEC18F01850C5
:10304000020AD8B429EF18F01850080AD8A42DEFB6
:1030500018F06CEC18F071EC18F029A23CEF18F0A5
:1030600018500E0AD8A43CEF18F0100E05EC06F02C
:103070000E0AD8B444EF18F01850030AD8B444EF3D
:1030800018F01850090AD8B471EC18F0030E136E3A
:103090000B0E146EBB0EE16E1350376E100E05EC66
:1030A00006F0186E000AD8A45EEF18F0000E05ECCA
:1030B00006F000EC04F0E76E65EF18F01850030A14
:1030C000D8A465EF18F00A0EE76EE106132A142E55
:1030D0004CEF18F0E1EF11F0B00EE16E0B0EE76E61
:1030E0001200BC0EE16E0B0EE76E1200136A2B503D
:1030F000166EAAEC19F01350FF0AD8B41FEF12F0A5
:10310000BFEC19F0132A16503D0A650ED8A4660EBE
:10311000146E1350145CD8A090EF18F092EF18F0D2
:10312000010E136E1650DCEC19F0130477EC19F055
:10313000EF501D6E0C0E1F6E1C9A1200136A2B505E
:10314000AAEC19F01350FF0AD8B41FEF12F01D506B
:103150002A0AD8A4B6EF18F03D0EEF18D8B4120022
:10316000BFEC19F03D0E2B6EC7EF18F02B50390A4B
:10317000D8B4BFEC19F0130600EC1AF01350FF0A94
:10318000D8B41FEF12F0390E2B6EDCEC19F01304DB
:1031900077EC19F0EF501D6E1200136A2B50AAEC59
:1031A00019F01350FF0AD8B41FEF12F0BFEC19F05A
:1031B000130600EC1AF01350FF0AD8B41FEF12F0F8
:1031C0001350010AD8A4E9EF18F03F0E1D6EEEEF80
:1031D00018F0130477EC19F0EF501D6E2B50DCEC57
:1031E00019F00C0E1F6E1C9A1200136A2B50AAECD9
:1031F00019F01350FF0AD8B41FEF12F0650E135CDC
:10320000D8A006EF19F0050E0AEF19F01D50DCECFE
:1032100019F00A0E1F6E1C9A12007FEC19F0000EB6
:1032200077EC19F0EF501D6E070E1F6E1C9A1200FE
:10323000650E77EC19F0EF50356E3D0AD8A426EFF5
:1032400019F01C84E906EF50010F356E0A0E355C4B
:10325000D8A02DEF19F0090E356E376A000E19EC63
:1032600006F01200136A3D0EAAEC19F01350FF0A83
:10327000D8B41FEF12F013500108D8A041EF19F095
:103280001200020E135C77EC19F0EF501D6E0A0E5F
:103290001F6E1C9A1306BFEC19F012006DEC19F0AA
:1032A000070E376E186E800E05EC06F024AA5FEF4D
:1032B00019F03538F00BE76E249A66EF19F03550A7
:1032C0000F0BE712248AE12AD8B4E22A372A182EF3
:1032D00053EF19F072EC19F012003F50E26E4050BB
:1032E000E16E1200E2503F6EE150406E1200E96E56
:1032F000060EEA6E1200416A27AE9AEF19F0660ECA
:10330000136E000E77EC19F0000EEE6E132E85EFA3
:1033100019F077EC19F0EA50E26EE950E16E3F0ED9
:10332000E66E3D0EE76E010E1D6E3D0E2B6E660EB7
:10333000166E1200060EEA6EE96AA00E136E000EFB
:10334000EE6E132EA0EF19F0060EE26EE16A850E06
:10335000166E1200146E135077EC19F0EF5014181B
:10336000D8A4B4EF19F01200132A13506608D8A09D
:10337000BCEF19F0ABEF19F0FF0E136E120013281B
:10338000146E14506608D8B0C7EF19F0120014502C
:1033900077EC19F0EF50156E140477EC19F0155016
:1033A000EF6E142A670E1418D8A4C7EF19F0660E32
:1033B00077EC19F0EF6A1200146E660E156E13505A
:1033C000155CD8B0E5EF19F01200155077EC19F044
:1033D000EF50166E152877EC19F01650EF6E1506A3
:1033E000FF0E1518D8B4FAEF19F01350155CD8B0C9
:1033F000E5EF19F0135077EC19F01450EF6E12004E
:103400001EEC1AF01350FF0AD8B412001350FE0A33
:10341000D8A418EF1AF0FF0E136E1EEC1AF013501A
:10342000FF0AD8B412001350FE0AD8B41BEF1AF0EA
:10343000132A132A1200010E136E1200132A2B0EE8
:10344000AAEC19F01350FF0AD8B435EF1AF0135054
:103450006608D8A038EF1AF0132877EC19F0EF506F
:103460001D18D8A41EEF1AF01200FE0E39EF1AF044
:10347000FF0E136E120002EC00F07F6E02EC00F003
:103480007E6E0EEC00F0060E09EC00F07F50D8A422
:1034900053EF1AF07E50D8A453EF1AF0805027B0A3
:1034A000800954EF1AF0805009EC00F039EF10F069
:1034B0007F6A7E6A02EC00F015EC00F092EC1DF0E1
:1034C000070E09EC00F000EF0FF0100E221A39EF92
:1034D00010F0060EEA6ED00EE96E1450E926080EC2
:1034E000E26EEF500501FF6FE16EE750156E1200BE
:1034F000050122A48DEF1AF01550000AD8A485EF1B
:103500001AF0400E5E6E9AEF1AF0FF513F0B8009E1
:103510005E12CCEC23F09AEF1AF0080EEA6E280E39
:10352000FF25E96EEF50196E29ACAAEF1AF019A623
:103530009CEF1AF01550120000AA9AEF1AF019B079
:10354000A6EF1AF019A29AEF1AF0009A280EE926AF
:10355000EF50120029A29AEF1AF01550490AD8A488
:10356000B5EF1AF0800EC3EF1AF01550AA0AD8A4CE
:10357000BDEF1AF0410EC3EF1AF01550CC0AD8A4D3
:10358000C8EF1AF0220E5C6E25EC22F0FF0E12003E
:103590005C50186E5C6A1850D8B49AEF1AF0030B9E
:1035A000280D080EEA6E780EF3241424E96EEF500D
:1035B000156EFF0AD8B4FBEF1AF018AEE5EF1AF05B
:1035C00019AC9AEF1AF0F0EF1AF018ACEDEF1AF010
:1035D00019AA9AEF1AF0F0EF1AF019A89AEF1AF058
:1035E000240E00120188010EEA6E600EE96E020ED2
:1035F000EF6E1550120025EC22F01200F80E046454
:10360000120028AE07EF1BF0330E046E1200FF0EFF
:10361000046E120023B044EF04F004505218D8A4F2
:1036200012000A0E4A6E4B6A2586238012002596E8
:103630004C6A20502C6EAEEC16F042505A6EFF0EC3
:10364000426EBDEC0EF011EEB0F01A0EE76E29AC32
:1036500032EF1BF0020EE126050EE76E020EE126A8
:1036600034EF1BF0040EE126100E27AA0C0EE76EB5
:103670002480278439EF10F004505218D8B4D1EFC9
:103680001BF029AC4FEF1BF004505318D8A49FEF48
:103690001BF0070E196E070E4C6E00EF05F004507C
:1036A0005418D8B456EF1BF09FEF1BF027AA9FEFDA
:1036B0001BF029AE66EF1BF0080E4C6E500EF76E35
:1036C000A60EF66E238612EC13F012002482EBECA9
:1036D00015F02390228A1200060E4C6E340E93EFE2
:1036E0001BF0090E4C6E420E93EF1BF0090E4C6E50
:1036F000500E93EF1BF0090E4C6E5E0E93EF1BF015
:10370000090E4C6E6C0E93EF1BF0CE0E93EF1BF078
:10371000060E4C6EC00E93EF1BF0070E4C6EDC0EC7
:10372000238693EF1BF0F66E500EF76E12EC13F03B
:103730001200F66E510EF76E12EC13F01200BDEC93
:103740000EF05A50426E248027842390228A120061
:1037500004505218D8B4C0EF1BF004505618D8B417
:10376000CAEF1BF004505718D8A49FEF1BF07F6AD4
:103770007E6A2C5015EC00F092EC1DF000EF0FF07B
:103780002C06FF0E2C18D8A4D3EF1BF01A0E2C6EAB
:10379000D3EF1BF02C2A1B0E2C5CD8B02C6AD3EF75
:1037A0001BF0010E4C6EBDEC0EF011EEB0F0100EE1
:1037B000E76E020EE1261F0EE66E100EE66EB1EC0D
:1037C00004F0136E13380F0BE66E13500F0BE66EFA
:1037D000D2EC04F0E66EB00E080FE16E1D0EE76E3F
:1037E000120004505218D8B400EF1CF004505618C0
:1037F000D8A49FEF1BF0060E4C6E1C0E99EF1BF029
:10380000050E4C6EE60E93EF1BF004505218D8B420
:1038100030EF1CF004505318D8B42AEF1CF00450B9
:103820005418D8B424EF1CF004505518D8B421EF24
:103830001CF004505618D8A49FEF1BF00F8ABBEF62
:103840001CF00F9ABBEF1CF0E70E0F1410090F6E5F
:10385000BBEF1CF0E70E0F1408090F6EBBEF1CF056
:10386000E70E0F1400090F6EBBEF1CF00450521846
:10387000D8B451EF1CF004505418D8B44BEF1CF0DE
:1038800004505618D8A49FEF1BF0FC0E0F14020929
:103890000F6EBBEF1CF0FC0E0F1401090F6EBBEF97
:1038A0001CF0FC0E0F1400090F6EBBEF1CF004504F
:1038B0005218D8B472EF1CF004505418D8B46CEFFE
:1038C0001CF004505618D8A49FEF1BF0E70E0F14FD
:1038D00010090F6EBBEF1CF0E70E0F1408090F6EF6
:1038E000BBEF1CF0E70E0F1400090F6EBBEF1CF0CE
:1038F00004505218D8B493EF1CF004505418D8B4A4
:103900008DEF1CF004505618D8A49FEF1BF0FC0E4E
:103910000F1402090F6EBBEF1CF0FC0E0F1401090F
:103920000F6EBBEF1CF0FC0E0F1400090F6EBBEF07
:103930001CF02A9004505218D8B466EF1BF00450C3
:103940005618D8A49FEF1BF02A8066EF1BF0045096
:103950005218D8B4B7EF1CF004505618D8A49FEFF3
:103960001BF0E70E0F1410090F6EBBEF1CF0E70EF3
:103970000F1408090F6E7F6A080E20247E6E0F5008
:1039800015EC00F0EBEC1CF09FEF1BF0045052180C
:10399000D8B4D7EF1CF004505618D8A49FEF1BF0F2
:1039A00040EC1DF0FF0E15EC00F09FEF1BF092ECC9
:1039B0001DF09FEF1BF004505218D8B4E8EF1CF034
:1039C00004505618D8A49FEF1BF00F9ABBEF1CF0C1
:1039D0000F8ABBEF1CF03F0E24163F0E2A1629A2B9
:1039E000FEEF1CF00FAA248E0FB80BEF1DF00FA6F0
:1039F000FCEF1CF02A8C12002A8E12000FB80BEF7D
:103A00001DF00FA607EF1DF0248E0BEF1DF00FAC7D
:103A100004EF1DF0248C29AC1200CF0E2A160FA241
:103A200014EF1DF02A8812000FB02A8A1200EE6AE5
:103A3000EF500F0BEF6E1200EF50F00BEE6EEF50E9
:103A40000F0BEF6E1200E96E070E136EEE5015ECC1
:103A500000F0132E26EF1DF01200E96E070E136E14
:103A60000EEC00F0EE6E132E30EF1DF01200C7ECDE
:103A70000CF0070E136EEE6A132E3BEF1DF01200D2
:103A80007F6A280E5B247E6E120028AE4DEF1DF07B
:103A9000000E7F6E300E7E6E120029A856EF1DF0CC
:103AA000F86A4E0EF76E000EF66E120026A25EEF5A
:103AB0001DF0010E7F6E110E7E6E120029AA66EFB8
:103AC0001DF0010E7F6EF20E7E6E120027A26EEFC9
:103AD0001DF0020E7F6E860E7E6E1200F86A4E0E8C
:103AE000F76E800EF66E120002EC00F0800BD8B478
:103AF00081EF1DF023EC00F0080E09EC00F039EF27
:103B000010F0080E09EC00F07F6A280E7E6E060E9B
:103B1000186E0EEC00F009EC00F0182E89EF1DF085
:103B200039EF10F027A0120040EC1DF0550E15ECF7
:103B300000F045EC1DF0020EEA6EE96A29A6ACEF32
:103B40001DF013EC1EF045EC1DF0800EF62613EC74
:103B50001EF0800E816E120029A8B4EF1DF013EC48
:103B60001EF0800E816E120029AABAEF1DF0150E0C
:103B7000CAEF1DF027B2C9EF1DF0100E146E24EC31
:103B80001DF0142EBFEF1DF0E00EE96E100ECAEF0F
:103B90001DF0300E146E24EC1DF0142ECBEF1DF032
:103BA000120027A0120040EC1DF00EEC00F0550AA8
:103BB000D8A4120040EC1DF0FF0E15EC00F045EC0F
:103BC0001DF0020EEA6EE96A29A6EAEF1DF0000E6A
:103BD00009EF1EF029A8F0EF1DF0800E09EF1EF08E
:103BE00029AAF6EF1DF0150E02EF1EF027B201EF25
:103BF0001EF0100E02EC1EF0E00EE96E100E02EF49
:103C00001EF0300E146E2EEC1DF0142E03EF1EF07D
:103C10001200166E800E816E0900F550EE6E162EA3
:103C20000CEF1EF01200800E166E940E816E0000D6
:103C3000550E826EAA0E826E81820A00EE50F56EDB
:103C40000F00162E1EEF1EF0840E816E0000550E22
:103C5000826EAA0E826E8182120025A437EF1EF0BA
:103C6000259417A03BEF1EF025923EEF1EF017B0F3
:103C70003EEF1EF025A22582BFEF12F092EC1DF060
:103C800025920DEC14F06AEC14F071EC1EF04D6A04
:103C900025962390229A0E01E18BFB0E8E6E75EC19
:103CA0001EF037EC24F08FA05BEF1EF0132E56EFC2
:103CB0001EF053EF1EF045EC24F0F5EC21F000EF80
:103CC0000FF07F6A010E7E6E0EEC00F0FF0AD8B492
:103CD000F90EFF0A0E01E19B0F01306F800E2F6F6E
:103CE000120075EC1EF04E901200070E136E070EB8
:103CF000EA6EE96AEE6A132E7AEF1EF04E82120027
:103D00004E940550FF0AD8A41200010EE26E200E58
:103D1000E16EB1EC0CF0070EEA6EE96AEF50D8B430
:103D2000B5EF1EF029A299EF1EF0EF38E76EA6EF6F
:103D30001EF0010FD8B4FF0F330DF430136E0A0DCF
:103D4000F350EF5C0F0BE66E1338E76E060E136E42
:103D5000E92AEF50E906EF6EE92A132EA8EF1EF0CC
:103D6000070EEA6E060EE96EEF6A22B24E924E849C
:103D70001200070E136E28B61306070EEA6EE96AE4
:103D8000EE50000AD8B4CCEF1EF0132EC0EF1EF098
:103D900075EC1EF0CDEF1EF0E9060450EF6E120038
:103DA0004EAED8EF1EF04E9E4E90BDEC0EF01200BF
:103DB0004E9022B446EF05F0F00E09EC00F0F40E40
:103DC00009EC00F0120011EEB0F00F0E186E9180A9
:103DD000EFEC1EF09190182EE8EF1EF01200919477
:103DE000E650146E0F0B156E1434200B15108D6EEB
:103DF00003EC01F0918403EC01F0120029AC14EF04
:103E00001FF001B008EF1FF0018A23BA009E1200D4
:103E100023AA008E2AEC22F0020BD8B412EF1FF076
:103E2000019A1200018A120029A21CEF1FF001BAA8
:103E30001CEF1FF025B2018A28B6120028AE2FEF22
:103E40001FF001B027EF1FF0009E2BEF1FF0008E38
:103E500001960FBA018623BA008E60EF1FF023AAE5
:103E600039EF1FF026BE38EF1FF0018039EF1FF049
:103E7000008E26AA42EF1FF024AE0186120024BE57
:103E80000186120028B448EF1FF027A24BEF1FF065
:103E900024AE0186120028B23FEF1FF028B03FEF9A
:103EA0001FF026B85EEF1FF026B65EEF1FF026B2B9
:103EB0005EEF1FF027B260EF1FF0120024AE018604
:103EC000019A25B2018A1200800E816E500EF76EA3
:103ED000800EF66E88EC1FF0E3EC1EF095EC1FF000
:103EE000500EF76E8E0EF66E88EC1FF0E3EC1EF0AF
:103EF00095EC1FF0500EF76E960EF66E88EC1FF0E4
:103F0000E3EC1EF095EC1FF0A0EC24F09FEF1BF00B
:103F1000BDEC0EF011EEB0F0F86A0900F5507F0B21
:103F2000E66EF5AE8DEF1FF01200A0EC24F0A0ECD1
:103F300024F0A0EC24F012000C0EE26EE16A010104
:103F4000FF6BE76AE13EFDD726A0AFEF1FF0170E2B
:103F5000186E1D0E196E030E156E1AEF20F028AEA6
:103F6000BAEF1FF0200E186E2D0E196E160E156E7C
:103F70001AEF20F026A6C7EF1FF0090E186E0F0EDD
:103F8000196E0A0E29B80B0E156E1AEF20F026A234
:103F9000D2EF1FF0200E186E2D0E196E0D0E156E3D
:103FA0001AEF20F028A4DFEF1FF0090E186E0F0E95
:103FB000196E100E29BA110E156E1AEF20F027A2F5
:103FC000FCEF1FF02AB008D0000E186E1F0E196EFD
:103FD000120E156E1AEF20F01F0EC7EC0CF0010147
:103FE000EE38186EFF6F1F0E196E120E156E0F0E43
:103FF0001860FF071AEF20F0100E186E1D0E196ED4
:104000002AA018D0140E29B6150E156E01011E0E29
:10401000C7EC0CF0EE52EE50F00B186EFE6F010183
:104020001838FF6F1009186EEE52EE52EE52EE5233
:10403000EF50FD6F2AB0EBEF20F0D5EC15F047EC18
:1040400014F026A630EF20F00A0E1418D8B453EF5F
:1040500020F00B0E1418D8B453EF20F088EF20F0A6
:1040600028A43FEF20F0100E1418D8B453EF20F01E
:10407000110E1418D8B453EF20F088EF20F028A0C8
:104080004EEF20F0140E1418D8B453EF20F0150E94
:104090001418D8B453EF20F088EF20F014502018F3
:1040A000D8A488EF20F0150E156E47EC14F0152EED
:1040B00055EF20F027A276EF20F018500F0AD8A471
:1040C00065EF20F0182A76EF20F018501F0AD8A4C8
:1040D00076EF20F01850C7EC0CF047EC14F0EE6EC1
:1040E00047EC14F0F00BEF6E91EF20F01850C7EC96
:1040F0000CF0070E156E47EC14F0EE6E152E7BEFEC
:1041000020F018501918D8B40CD0182A5AEF20F003
:10411000239847EC14F0AEEC16F01950186E58EFD7
:1041200013F028A007D0010147EC14F0FE6F47EC14
:1041300014F0FF6F239847EC14F0010EEA6E26A0EE
:10414000ABEF20F0200EE96E010EEA6EEE6AEE6A29
:10415000EE6A88EF16F028AEB6EF20F0600EB1ECF4
:104160000CF0700EB1EC0CF088EF16F026A6BFEF45
:1041700020F0610EE96E1CEC1DF088EF16F026B2FF
:10418000AEEF20F028A4CDEF20F0080EC7EC0CF025
:10419000E92A1CEC1DF088EF16F027A2D7EF20F0DB
:1041A0002F0EC7EC0CF017EC1DF088EF16F01E0E6A
:1041B000C7EC0CF0EE6AEF500F0B136E0101FF51CC
:1041C000F00B1310EF6E050EE926D8B0EA2AFE5167
:1041D000EF6E88EF16F01550E66ED6EC13F0155022
:1041E000E66E0101070EFF03F350E1261850C7ECFD
:1041F0000CF02CD818501918D8B416D0182A27A2A9
:10420000F5D718500F0AD8A402D0182AEFD71850A3
:104210001F0AD8A4EBD71850C7EC0CF0EE50E66E8E
:10422000EE50F00BE66E07D028A005D00101FD513D
:10423000E66EFE51E66EFF0EE66EE150D8A4FBD7A7
:10424000080E196EF9EC14F088EF16F0070E176ED1
:10425000EE50E66E172E28EF21F012000F0E09EC3B
:1042600000F07F6A070E7E6E02EC00F0000AD8A410
:1042700045EF21F002EC00F015EC00F013500501C1
:10428000F893D8B4F88347EF21F00EEC00F009EC76
:1042900000F039EF10F00A0E09EC00F002EC00F02B
:1042A000000AD8A45CEF21F002EC00F0000A2A9288
:1042B000D8A42A8268EF21F07F6A010E7E6E135027
:1042C000800AD8A46BEF21F002EC00F015EC00F0AE
:1042D000135070EF21F0FF0E09EC00F00EEC00F02F
:1042E00009EC00F039EF10F0BDEC0EF0E106010E24
:1042F000EA6E100EE96EEF50186EF00BD8A48AEF3C
:1043000021F0000EE96EEF50176EEF380F0B00EC46
:1043100004F0E76EE10618500F0B186ED8B496EF54
:1043200021F01850040AD8A49BEF21F017500F0B6E
:1043300000EC04F0E76EE106010EE96EEF50F00BC1
:10434000200AD8A4A6EF21F00B0EE76E030E136E21
:104350000B0E146EBB0EE16E1350376E100E05EC93
:1043600006F0186E000AD8A4BEEF21F0000E05EC8E
:1043700006F000EC04F0E76EC5EF21F01850030AD8
:10438000D8A4C5EF21F00A0EE76EE106132A142E19
:10439000ACEF21F0660EE96EEF500F0B090AD8A4BE
:1043A000E1EF11F00B0EE76EE1EF11F038BEDEEF3A
:1043B00021F03A500A1438240A6E388E39BEE6EFDE
:1043C00021F03B500A1439240A6E398E28AE1200AF
:1043D00001A012000A500F0B186E0C0E185CD8A02A
:1043E0001200040E18240A6E12009D50060BD8B459
:1043F00012009D9E000E04EC01F09D8E9950995084
:10440000120028A0120029B612001E0EC7EC0CF0F4
:10441000000EEE6ED50EEE6E8D0EEE6E230EEE6E6F
:10442000E00EEE6E000EEE6E000EEE6E056A1200ED
:10443000020EEA6EE96AE00E166EEE5009EC00F02C
:10444000162E1DEF22F039EF10F08D6A916A00EC04
:1044500001F01200010E24BE1200040E24AC020E64
:104460001200070DF350E96EF450020F3AEF22F0FC
:10447000E96E010EEA6E070E136EEE5009EC00F0C5
:10448000132E3DEF22F01200B60ECBEF22F0B70E46
:10449000CBEF22F0B80ECBEF22F0B90ECBEF22F02B
:1044A000BA0ECBEF22F0BB0ECBEF22F0BC0ECBEF5F
:1044B00022F0BD0ECBEF22F0BF0ECBEF22F0C00EEC
:1044C000CBEF22F05FB0D1EF05F0C10ECBEF22F0C1
:1044D0005EACD1EF05F0C20ECBEF22F05EACD1EFB7
:1044E00005F0C30ECBEF22F05FBAF4EF22F0C40E5A
:1044F000CBEF22F05FBAF4EF22F0C50ECBEF22F043
:104500005FBAF4EF22F0C60ECBEF22F05FBAF4EF01
:1045100022F0C70ECBEF22F05EACD1EF05F02BEC12
:1045200023F0C80E7AEF23F0C90ECBEF22F05FA282
:10453000D1EF05F0CA0E5F84CBEF22F05F845F8677
:10454000BE0E5F88CBEF22F05F84CB0E5F86CBEF91
:1045500022F05EACD1EF05F0CC0E5F84CBEF22F001
:104560005EACD1EF05F0CD0E5F84CBEF22F0D00E24
:104570005FBCE2EF22F05EACD1EF05F0CE0E5F84BF
:10458000CBEF22F0D10E5FBCE2EF22F05EACD1EFB8
:1045900005F0CF0E5F84196E2BEC23F0195019EC47
:1045A00023F0100E5D6E5E6A200E5FB438EC22F0D0
:1045B000300E5FB638EC22F0050E5FB8B8EF23F08E
:1045C000BAEF23F0196E2BEC23F0195019EC23F0FD
:1045D0000501F95109EC00F0FA5109EC00F0100E58
:1045E0005D6E5E6ABAEF23F05E6AD6EF10F05EACE5
:1045F000D1EF05F02BEC23F0010E15EF23F05EACAC
:10460000D1EF05F02BEC23F0020E15EF23F05EAC9A
:10461000D1EF05F02BEC23F0030E15EF23F05EAC89
:10462000D1EF05F02BEC23F0070E5D6E5E6A46EFCE
:1046300005F0196EB00E09EC00F0195009EC00F00D
:104640005D5009EC00F0BDEC0EF011EEB0F0200E64
:10465000E76E24901200B00E09EC00F0B10E09ECE8
:1046600000F0010EEA6E600EE96EEE500F0B166E52
:10467000EF50F00B161009EC00F05E507F0B01BA02
:10468000800909EC00F00501FB5109EC00F0FC5138
:1046900009EC00F0700E38EC22F05F5009EC00F0ED
:1046A0001200030E0A6E720E0B6EB00E09EC00F0D3
:1046B000F40E09EC00F024800CEF10F0B50E19ECAC
:1046C00023F05D6ABAEF23F0B40E7AEF23F0B30E55
:1046D00019EC23F0500E7FEF23F0B30E19EC23F00A
:1046E000400E7FEF23F0B30E19EC23F0300E7FEF76
:1046F00023F0B30E19EC23F0200E5D6A5E6A38ECED
:1047000022F0BAEF23F0B20E19EC23F0010EB8EF4D
:1047100023F0B20E19EC23F0020EB8EF23F0B20E24
:1047200019EC23F0030EB8EF23F0B20E19EC23F0CE
:10473000040EB8EF23F0B20E19EC23F0050EB8EF1B
:1047400023F0B20E19EC23F0060EB8EF23F0B20EF0
:1047500019EC23F0070EB8EF23F0B20E19EC23F09A
:10476000080EB8EF23F0B20E19EC23F05D6A090EC3
:1047700031EC22F00C0E4F6E506A4E805F6A0CEFE7
:1047800010F00650030AD8A412000750D40AD8B477
:1047900012000750B70A12005EAC12005E503F0BC9
:1047A0001F0AD8B4E3EF23F01F0A0C0AD8A4F2EFD3
:1047B00023F0020EEA6E070EE96E3F0E136EEE6AEC
:1047C000132EDFEF23F0200EB1EC0CF0300EB1EC25
:1047D0000CF0400EB1EC0CF0500EB1EC0CF0380EB9
:1047E000156E00940FBA5E6A12000501F8B11DEF54
:1047F00024F08D6A916A0E01E18B37EC24F0136A84
:104800001D0E8E6EC00E906E132E04EF24F08F508E
:104810003F0B3F0AD8B421EF24F0132E0DEF24F004
:104820008F503F0B3F0AD8A40DEF24F0132E16EF44
:1048300024F045EC24F00E01E19B2FEC24F021EF55
:1048400010F0190E8E6EFF0E906E132E25EF24F0D1
:104850008FA000EF24F045EC24F03EEF1EF00501A0
:10486000F251F56FF351F66FF451F76F12000E012C
:10487000DA9F500ED86F136A050E146E132E3EEF9A
:1048800024F0142E3EEF24F012000E01DA9F700E79
:10489000D86F000E04EC01F012000E0E09EC00F0CF
:1048A0007F6A030E7E6E02EC00F0FF0AD8A471EF5F
:1048B00024F002EC00F0186E02EC00F0196E02EC2D
:1048C00000F0185015EC00F0195015EC00F01350E2
:1048D00015EC00F02FEC24F00E0E09EC00F039EF8F
:1048E00010F00E0E09EC00F00EEC00F009EC00F0F8
:1048F0000EEC00F009EC00F00EEC00F009EC00F01A
:1049000039EF10F0BDEC0EF011EEB5F01F0EE66EB3
:10491000100EE66E0B0EE66E2050B2EC04F0136E35
:1049200013380F0BE66E13500F0BE66E2050D3ECCE
:1049300004F0E66E4E80070E4F6E506A4E8E1200E7
:10494000470E136E03EC01F0132EA2EF24F01200B9
:10495000040E2018D8A41200000E77EC19F03F0EB8
:10496000EE6E3D0EEF6E010E1D6E3D0E2B6E1200B3
:104E000000000000000000000000000000000000A2
:104E10000000000000000000000000000000000092
:104E20000000000000000000000000000000000082
:104E30000000000000000000000000000000000072
:104E40000000000000000000000000000000000062
:104E50000000000000000000000000000000000052
:104E60000000000000000000000000000000000042
:104E70000000000000000000000000000000000032
:104E80000000000000000000000000000000000022
:104E90000000000000000000000000000000000012
:104EA0000000000000000000000000000000000002
:104EB00000000000000000000000000000000000F2
:104EC00000000000000000000000000000000000E2
:104ED00000000000000000000000000000000000D2
:104EE00000000000000000000000000000000000C2
:104EF00000000000000000000000000000000000B2
:104F000000000000000000000000000000000000A1
:104F10000000000000000000000000000000000091
:104F20000000000000000000000000000000000081
:104F30000000000000000000000000000000000071
:104F40000000000000000000000000000000000061
:104F50000000000000000000000000000000000051
:104F60000000000000000000000000000000000041
:104F70000000000000000000000000000000000031
:105000001000011D180C0C0D0E0E0F8E1A050C0D44
:105010000E0E0F8E181E100D0C0D0E0E0F8E161488
:10502000140D05050C0D0E0E0F8E100E0F0C128FA9
:105030001A160E951812120E0C100E1C0C0C0E17D0
:1050400092FF100E1C0C0C0C0C0C0C0C0E1792FF8B
:10505000150D1C0C0C0C0C0C0C0C0E1695FF1B0DDE
:105060001C0C0C0C0C0C0C0C0D1295FF150B1B0DD5
:105070001C0C0C12120B0D1295FF0D0E16050D9542
:105080001F100C1A161914171916180F0E850C0C70
:105090000C0C0C0C1B9E1F160E1619150C16121557
:1050A0000C180F129EFF0E14010C0C0C0C0C0518A2
:1050B0008EFF0E14010C0C0C0C0C0C0C05188EFF42
:1050C0001501050C0C1619190C0C100E98FF161969
:1050D0000C101C0C180E0C0E120C1D8E150C0C0C4A
:1050E0001C0C0C0C8EFF150D1C0C0C1C0E150C0C46
:0450F0000E1695FF04
:105100001D1D0C180E0C1D0E0C101C0C0E92180EF2
:105110001C0C0C0C0C0C0C0C100E92FF1D1D0C0C1E
:105120000C0C16190C0C0C0C1D8E05180E0C0C0C0E
:105130000C0C0C0C1A018EFF0011110C0C0C0C0C39
:065140000C0C100E92FFA2
:1051700091A1D040B0FA92A26242B2FC71A3614107
:10518000B1FB947464D4B3FE937363D243FDFF7296
:10519000A4D144B4FFFFFFFF90A0D444B4FA91A17E
:1051A0006141B1FC70A26040B0FB937363D3B2FE67
:1051B000927262D142FDFF71A3D043B3FFFFFFFFA4
:1051C0002212380828002313330B2B031A14320A37
:1051D0002A02261E363C2C06241C343B0C04FF1BE2
:1051E000163A0E2EFFFFFFFF221238082800231365
:1051F000330B2B031A14320A2A02261E363E2C06C3
:10520000241C343B0C04FF1B163A0E2EFFFFFFFF3D
:105210002212380828182313330B2B1B0214320ACE
:105220002A1A2606363E2C1E2404343B0C1CFF038F
:10523000163A0E2EFFFFFFFF7050301090A07151F4
:10524000411292A26052401191A17363433393A41F
:105250007262423213A3FF6153311494FFFFFFFFC8
:105260004060709030FA4161A19232FCD062A0910E
:1052700031FB43D3A37333FE42D2A27293FDFFD11D
:1052800063719434FFFFFFFF5156141F28FA474CF7
:10529000462B32FC5242500B29FB1A201E1034FEC2
:1052A0003D3E3C2E17FDFF48240A0D38FFFFFFFF4F
:1052B0001519FF2114FA0E06031C1BFC1507221EEC
:1052C00018FB0C0B05F91AFE0C0A04FF20FDFF0960
:1052D00008FF1623FFFFFFFF1C15587386274A1689
:1052E000285E333218171480833C0E1E0B455B2258
:1052F0001B726E6C7C46FF1912764479FFFFFFFF2C
:105300000E1401CC084A05158589484C441684477B
:10531000064B021112438D4E07468642AA4DFF45A9
:1053200013414909FFFFFFFF3F325F0F0F4F7F22FD
:10533000614F0F4F7122124F4F4F7F7F7F7F0F4F73
:105340003112025F0F4F0F727F7F0F7F0F0F0F0F12
:10535000FF68FFFFFFFFFF3A36FFFFFF308A94FF31
:10536000FFFFFFFFFFFFFFFF403036FFFFFFFF4063
:10537000FFFFFFFFFFFFFFFF891844CC884A131986
:105380001D06824C471A0B088E4B141215078C4EC3
:105390000A171D01AA4DFF8A1645490CFFFFFFFFA2
:1053A0008118FFCCFFFF17191CFF87FF891A0CFF1C
:1053B0008AFF84118505FFFF0A1B1CFFAAFFFF88D7
:1053C0008687490BFFFFFFFF821E46CC06FF131E98
:1053D00003FF83FF830D03FF04FF0D8C8B438EFFC0
:1053E000480E0442AAFFFF028D414909FFFFFFFF5B
:1053F000000102030405060708090A0B0C0D0E0F35
:10540000101112131415161718191A1B1C1D1E1F24
:105410002021222324252627171D0B110523160AD8
:105420001004221C090F03151E1B2102141A080E5A
:1054300037200D0701FF13191F0CFF12180600FF7C
:105440000000000000003F000000000000003F00DE
:105450000A00000000002F001F01300708103F80E5
:105460001F00B00708104F004080600F10305D0033
:105470000A00000008003F000000000000004F008C
:1054800000A0180004100D001090180708101D004F
:105490001088380708101D801088391708101D90D3
:1054A0001084080010001D003082392010301D804B
:1054B00004C0000008206D0014C0000010206D0022
:1054C00020C0200010346D8020C0213010346DA029
:1054D00040C0234010306D8430C0000010326D0099
:1054E00040C0200010316D8440C0215010316D8CBF
:1054F0003080210010F07D810380000010588F0063
:105500001080000F10709D404080200F1070AD0380
:105510000A00000000002F010000578000005C001E
:1055200000006300000071000000830000009B0089
:105530000000B7000000C2800000AB000000CD807A
:105540000000D9800000D9800000E7800000FB80C7
:1055500000010F8000011E800001348000013480B2
:105560000001548000017980000193800001938044
:105570000001BD800001D5000001E2000001F4003F
:1055800000006300FFFFFFFF0000560000005A808C
:1055900000005F0000006B0000007D0000008F0035
:1055A0000000B3000000BF00000097000000C980A9
:1055B0000000D5800000D5800000E1800000F3806D
:1055C00000010B800001178000012C8000012C805D
:1055D0000001448000017480000183800001838009
:1055E0000001B3800001D1800001DC000001EE0069
:0855F00000005F00FFFFFFFF58
:105600001242444A122292333A33321882333043E0
:10561000922400244242423A923332261223429488
:10562000313333232342433243342123333234345E
:10563000333233243423313342321A423333233466
:1056400033323231334233434323423423933333AF
:10565000323332333233322342334294333330A144
:10566000423342344232642444264234B931411236
:1056700034424333344323233044223424243182BC
:1056800023191942342319111914233333332332C4
:10569000339323429332333234242423323323335B
:1056A000333293333933233313934141414541110D
:1056B000131311314231433342113113313114117B
:1056C00041454141133452455555542033AA333294
:1056D0003323AA3A3323343422332334422432A3EB
:1056E00033332A32333A34555555555540A3233474
:1056F00023332333342A333233333239323393333F
:10570000A33332913423323323313233241414112E
:105710004114111111333233434233233414242101
:105720001211141141141141114343352423323213
:105730003332333323333333425325423342045518
:1057400055555213332333332331A332330A3323D2
:10575000323332433233342324233333A455555563
:105760005232332344233433233323333233342428
:1057700055555555555233332333223455555242DE
:1057800037BF080515191220B4FE173001D9BBF830
:105790000B10FAFAFA1A9A00033FFAFAFA01432AAE
:1057A0000110744301002015112E19271AC20B1085
:1057B00002DBFAFAFA1299035CDDF2B313760030D9
:1057C000B3DD4BBE45DAE06EE6CD4DE6707A004CB7
:1057D0001BB5E924875FDD345C36E25D3330634C12
:1057E0004A626E682A5E5745EA2442CA0AF742B303
:1057F0005C89EC7AB41024F6EC3E636E7F362A4D59
:10580000455A9F4E9D8032F7B5675C93237B414498
:1058100060688FEB53F932167A3F010BFEFE7E7EF5
:1058200012A3EBE969A7EB8912BEA3FA03BEA8BDD8
:1058300023B4DF3F27B70017335B2F7F8B01105C4A
:1058400015DDB36708CF7E1825CD7AC60020C700C6
:10585000705CD00128CC43050000EB5D17F7AF8AE0
:10586000B57052454CBBBDF8F84260D8EF00EAF87D
:10587000CB01142B1C6F3F0AC326FC70A47A03DBF8
:10588000F3CB280128012909EB251237A600A5989A
:105890002501A62ADABBF849E95AA46E19B47A1D83
:1058A000B3A3008B418B44DE00EB682D2B6322CB2E
:1058B0006321252A6D25153FEF0DA4DF3A7FCC74B7
:1058C000CB4BD43B01B3ECCB4400FFFF23330AB5F1
:1058D000B25801EB44A4469B489B42084A9B8E9BCE
:1058E000CC439B23CBCCABA6296C3F980133587A91
:1058F00021A5A6CCABA5CCABAB95ABEBCC4A9C8E93
:10590000489D4208469C449C9CCB934D05FB460811
:10591000060502040921DA01BBF8002043A58BA18A
:105920007FC3A0E32020522078D3A8F34370945083
:10593000A92D78C5B2E5457050B32D70E5DB005E4A
:105940005EBAD79FC62081CA3FCBC320334B07081E
:1059500005030908010603054C0100E2DE587F50EB
:10596000BBEABA18E6B3938A324CAE20A4A45FEC2B
:1059700074C48C23DFEEEC01070143EC00A45F8FBD
:1059800000CFFF95441201A6632842BBD100B35F4C
:10599000007F4B96D811CCE701476D489D499CFE8E
:1059A0004A9C7D4B9CDF9CB99CF6EB53062F53CB56
:1059B00070435130EB6F38397A4BC529062594F680
:1059C000A794F6ECB94B9BDF4A9B7D499BFE489B15
:1059D0009B9B46BC4D8BEB068E225EFA9EC2C55940
:1059E000E5435A5CB334EA6F6CCBC33BB38B33599A
:1059F0002276047979065175939322940147030323
:105A00000008050009EA96F84B5F86B4EB45EBDF2A
:105A100088CBF8CC10B4DF95BFE30110B38BA0E3C3
:105A20005F9FEB45EB6D437257AB2FC9BB5CC5194C
:105A3000B6210024D97E8CE9100806090301040769
:105A400001E6F964E358C4B3605DC57ABF4C0B98B6
:105A5000D6435A9BCF334AE39FC7E9630B4C7A493D
:105A60000301000107090800050503DDEB4B61AEEA
:105A70005E7EB37AF267334C020300020581457EF5
:105A80001242444A122292333A333218823330435C
:105A9000922400244242423A923332261223429404
:105AA000328233332323423342334294333421410D
:105AB000342334343233342334221A44231333331B
:105AC0003233312344243333443232330393333378
:105AD000323332333233322342433432343232A11E
:105AE000423342344232642444264234B9314112B2
:105AF000423234233333234343233243423323227A
:105B0000231919423423191119142333333323323F
:105B100033932342933233323424242332332333D6
:105B20003332933339332333139341414145411188
:105B300013131131423143334211311331311411F6
:105B400041454141133452455555542033AA33320F
:105B50003323AA3A3323343422332334422432A366
:105B600033332A32333A34555555555540A32334EF
:105B700023332333342A33323333323932339333BA
:105B8000A333329134233233233132333241414112
:105B9000141141111113332334342332334142425F
:105BA00011211314114114114111433524233232B0
:105BB0003332333323333333425325423342045594
:105BC00055555213332333332331A332330A33234E
:105BD000323332433233342324233333A4555555DF
:105BE00052323323442334332333233332333424A4
:105BF000555555555552333323332234555552425A
:105C000037BF0805151912205442173001D9BBF8C7
:105C10000B10FAFAFA1A9A00033FFAFAFA01432A29
:105C20000110744B01002015112E19271AC20B10F8
:105C300002DBFAFAFA129903EDDD76B313E00030D5
:105C4000B3DD03DB4BBE45DA876E8DCD4D8DCBBB0F
:105C50002354DF3F27570017335AEF5B474716E5BA
:105C6000B55C5E8B7B41446068665B8BE953AFE952
:105C7000BA245F7A5410142B1CB3E54AB34EC2EA1F
:105C800006832A5262F0DDB57052474CBBBDF8F86E
:105C90004260D8960091F8CB013F010BFEFE7E7E5C
:105CA00012A3EBE969A7EB8912BEA3FA03BEA861B0
:105CB00026B4705AA44C69707A1B986F41BA10EDE3
:105CC00015DDB36708CF7E1825CD7AC60020C70042
:105CD000705CD00128CC43050000EBFD17E54E6356
:105CE00024E4E6FB3F0AC3EE345C369EFD333063AA
:105CF0004C6EF72A5EE745EA2444CA0A7A19EEEDAB
:105D0000F3CB280128012909EB251237A600A59815
:105D10002501A62ADABBF849E95AA46E19B47A1DFE
:105D2000B3A3008B418B44DE00EB682D2B6322CBA9
:105D30006321252A6D25153FEF0DA4DF3A7FCC7432
:105D4000CB4BD43B01B3ECCB4400FFFF23330A78A9
:105D5000B75801EB44A4469B489B42084A9B8E9B44
:105D6000CC439B23CBCCABA6296C3F980133587A0C
:105D700021A5A6CCABA5CCABAB95ABEBCC4A9C8E0E
:105D8000489D4208469C449C9CCB934D05FB46088D
:105D9000060502040921DA01BBF8002043A58BA106
:105DA0007FC3A0E32020522078D3A8F343709450FF
:105DB000A92D78C5B2E5457050B32D70E5DB005EC6
:105DC0005EBAD79FC62081CA3FCBC320334B07089A
:105DD00005030908010603054C0100E2DE587F5067
:105DE000BBEABA18E6B3938A324CAE20A4A45FECA7
:105DF00074C48C23DFEEEC01070143EC00A45F8F39
:105E000000CFFF95441201A6632843BBD100B35FC6
:105E1000007F4B96D811CC4FE701476D489D499CB8
:105E2000FE4A9C7D4B9CDF9CB99CF6EB530630539D
:105E3000CB70435131EB6F39397A4BC52906259424
:105E4000F6A794F6EC0DB94B9BDF4A9B7D499BFE70
:105E5000489B9B9B4D8BEB068E225EFA9EC2C559DA
:105E6000E5435A5CB334EA6F6CCBC33AB38B335916
:105E7000227604797906517593932294014703039E
:105E80000008050009EA96F84B5F86B4EB45EBDFA6
:105E900088BBF8C410B4DF95E4CF0110B38BA0E346
:105EA0005F9FEB45EB6D437257AB2FC9BB5CC519C8
:105EB000B6210024D97E8CE91008060903010407E5
:105EC00001E6F964E358C4B3605DC57ABF4C0B9832
:105ED000D6435A9BCF334AE39FC7E9630B4C7A49B9
:105EE0000301000107090800050503DDEB4B61AE66
:105EF0005E7EB37AF267334C020300020581457E71
:105F00001A133333311312421332A13AA4293C0C31
:105F1000311113C32312A3423142422A3A3332329F
:105F20003454324232345332211333314135541117
:105F3000233234532A44233323142A42144223A302
:105F400034342244448324324334242442224244BD
:105F50003244AA434433333323332333233322A23B
:105F60004244229904AA333234042342A424244212
:105F7000403334344203342242333C3C24242AAAA2
:105F80003231C31C34234232431C111CA31423336B
:105F90003333233233C32342C33233322A423323CF
:105FA0003233333323C3333C33233313C414141435
:105FB000541111313113424233113A13313114115A
:105FC00041454141133452455555542033AA33328B
:105FD0003323AA3A3323343422332334422432A3E2
:105FE00033332A32333A345555555555A0A323340B
:105FF00023332333342A33323333323C33233C3399
:10600000A333329134233233233132332414141125
:1060100041141111113332334342332334142421F8
:10602000121114114114114111434335242332320A
:10603000333233332333333342532542334204550F
:1060400055555213332333332331A332330A3323C9
:106050003233324332333423242A2033A455555566
:10606000523233234423343323332333323334241F
:1060700055555555555233332333223455555242D5
:10608000A022202AAA229299223332A1323330ABA5
:106090004A240A241222A0120A3332A012223A9170
:1060A00021421332AA4214423338382004414212AA
:1060B00044AA4242441114212C422432211A0031B4
:1060C0004112342334234423264244426423442A85
:1060D00003333234343332332342331423244233F0
:1060E0002342333323343332323133423343432375
:1060F0004234242431433243342123429433333015
:1061000002222A1222422A1212222A0220222002CB
:106110001A2220241222221200332A0212320034C0
:106120002A1499334221AA3442838A004A1A4A42E5
:1061300044AAA442442442423AA44424A4A020A154
:10614000924244A9930421321C2194421991200ABD
:10615000B424AA3A14432491323314131C111C138F
:10616000332313121423C0C042212000000000007A
:1061700000000000000000000A000A000000000A01
:10618000A333333C0C423422A000024411113120CD
:1061900000211113331123C0C099304410000000B6
:1061A0000A441311321131913331911913114429D9
:1061B00031931200000000000000013A000142A0EB
:1061C00000000000000000000000000000000000CF
:1061D0002424AA3A00000000333A233332334333F5
:1061E00023323C3C0000000000000000000042425E
:1061F0002422334583343C39C33322352000000048
:10620000224231134438323324334423334433336A
:106210002443324422322323433323334243333251
:10622000233333323333423332333422000000001D
:1062300000022333C332000000214A42930041A1EF
:10624000A3313223255523255555555315555555FD
:1062500055524344233C4C343422333C33C2323213
:106260003242442231A32343233233333233343393
